{
  "contractName": "Freelancia",
  "abi": [
    {
      "inputs": [],
      "stateMutability": "nonpayable",
      "type": "constructor"
    },
    {
      "anonymous": false,
      "inputs": [
        {
          "indexed": true,
          "internalType": "address",
          "name": "to",
          "type": "address"
        },
        {
          "indexed": false,
          "internalType": "uint256",
          "name": "value",
          "type": "uint256"
        }
      ],
      "name": "Mint",
      "type": "event"
    },
    {
      "anonymous": false,
      "inputs": [
        {
          "indexed": true,
          "internalType": "address",
          "name": "from",
          "type": "address"
        },
        {
          "indexed": true,
          "internalType": "address",
          "name": "to",
          "type": "address"
        },
        {
          "indexed": false,
          "internalType": "uint256",
          "name": "value",
          "type": "uint256"
        }
      ],
      "name": "Transfer",
      "type": "event"
    },
    {
      "inputs": [
        {
          "internalType": "address",
          "name": "",
          "type": "address"
        }
      ],
      "name": "balances",
      "outputs": [
        {
          "internalType": "uint256",
          "name": "",
          "type": "uint256"
        }
      ],
      "stateMutability": "view",
      "type": "function"
    },
    {
      "inputs": [],
      "name": "name",
      "outputs": [
        {
          "internalType": "string",
          "name": "",
          "type": "string"
        }
      ],
      "stateMutability": "view",
      "type": "function"
    },
    {
      "inputs": [],
      "name": "symbol",
      "outputs": [
        {
          "internalType": "string",
          "name": "",
          "type": "string"
        }
      ],
      "stateMutability": "view",
      "type": "function"
    },
    {
      "inputs": [],
      "name": "totalSupply",
      "outputs": [
        {
          "internalType": "uint256",
          "name": "",
          "type": "uint256"
        }
      ],
      "stateMutability": "view",
      "type": "function"
    },
    {
      "inputs": [
        {
          "internalType": "address",
          "name": "to",
          "type": "address"
        },
        {
          "internalType": "uint256",
          "name": "value",
          "type": "uint256"
        }
      ],
      "name": "transfer",
      "outputs": [],
      "stateMutability": "nonpayable",
      "type": "function"
    },
    {
      "inputs": [
        {
          "internalType": "address",
          "name": "owner",
          "type": "address"
        }
      ],
      "name": "balanceOf",
      "outputs": [
        {
          "internalType": "uint256",
          "name": "",
          "type": "uint256"
        }
      ],
      "stateMutability": "view",
      "type": "function"
    }
  ],
  "bytecode": "0x608060405234801561001057600080fd5b506040518060400160405280600a81526020017f467265656c616e636961000000000000000000000000000000000000000000008152506000908051906020019061005c92919061014f565b506040518060400160405280600381526020017f464c4e0000000000000000000000000000000000000000000000000000000000815250600190805190602001906100a892919061014f565b506305f5e100600281905550600254600360003373ffffffffffffffffffffffffffffffffffffffff1673ffffffffffffffffffffffffffffffffffffffff168152602001908152602001600020819055503373ffffffffffffffffffffffffffffffffffffffff167f0f6798a560793a54c3bcfe86a93cde1e73087d944c0ea20544137d41213968856002546040516101429190610201565b60405180910390a2610287565b82805461015b90610226565b90600052602060002090601f01602090048101928261017d57600085556101c4565b82601f1061019657805160ff19168380011785556101c4565b828001600101855582156101c4579182015b828111156101c35782518255916020019190600101906101a8565b5b5090506101d191906101d5565b5090565b5b808211156101ee5760008160009055506001016101d6565b5090565b6101fb8161021c565b82525050565b600060208201905061021660008301846101f2565b92915050565b6000819050919050565b6000600282049050600182168061023e57607f821691505b6020821081141561025257610251610258565b5b50919050565b7f4e487b7100000000000000000000000000000000000000000000000000000000600052602260045260246000fd5b6107e5806102966000396000f3fe608060405234801561001057600080fd5b50600436106100625760003560e01c806306fdde031461006757806318160ddd1461008557806327e235e3146100a357806370a08231146100d357806395d89b4114610103578063a9059cbb14610121575b600080fd5b61006f61013d565b60405161007c919061056e565b60405180910390f35b61008d6101cb565b60405161009a91906105b0565b60405180910390f35b6100bd60048036038101906100b89190610481565b6101d1565b6040516100ca91906105b0565b60405180910390f35b6100ed60048036038101906100e89190610481565b6101e9565b6040516100fa91906105b0565b60405180910390f35b61010b610232565b604051610118919061056e565b60405180910390f35b61013b600480360381019061013691906104aa565b6102c0565b005b6000805461014a906106e0565b80601f0160208091040260200160405190810160405280929190818152602001828054610176906106e0565b80156101c35780601f10610198576101008083540402835291602001916101c3565b820191906000526020600020905b8154815290600101906020018083116101a657829003601f168201915b505050505081565b60025481565b60036020528060005260406000206000915090505481565b6000600360008373ffffffffffffffffffffffffffffffffffffffff1673ffffffffffffffffffffffffffffffffffffffff168152602001908152602001600020549050919050565b6001805461023f906106e0565b80601f016020809104026020016040519081016040528092919081815260200182805461026b906106e0565b80156102b85780601f1061028d576101008083540402835291602001916102b8565b820191906000526020600020905b81548152906001019060200180831161029b57829003601f168201915b505050505081565b80600360003373ffffffffffffffffffffffffffffffffffffffff1673ffffffffffffffffffffffffffffffffffffffff168152602001908152602001600020541015610342576040517f08c379a000000000000000000000000000000000000000000000000000000000815260040161033990610590565b60405180910390fd5b80600360003373ffffffffffffffffffffffffffffffffffffffff1673ffffffffffffffffffffffffffffffffffffffff1681526020019081526020016000206000828254610391919061063d565b9250508190555080600360008473ffffffffffffffffffffffffffffffffffffffff1673ffffffffffffffffffffffffffffffffffffffff16815260200190815260200160002060008282546103e791906105e7565b925050819055508173ffffffffffffffffffffffffffffffffffffffff163373ffffffffffffffffffffffffffffffffffffffff167fddf252ad1be2c89b69c2b068fc378daa952ba7f163c4a11628f55a4df523b3ef8360405161044b91906105b0565b60405180910390a35050565b60008135905061046681610781565b92915050565b60008135905061047b81610798565b92915050565b60006020828403121561049357600080fd5b60006104a184828501610457565b91505092915050565b600080604083850312156104bd57600080fd5b60006104cb85828601610457565b92505060206104dc8582860161046c565b9150509250929050565b60006104f1826105cb565b6104fb81856105d6565b935061050b8185602086016106ad565b61051481610770565b840191505092915050565b600061052c6014836105d6565b91507f496e73756666696369656e742062616c616e63650000000000000000000000006000830152602082019050919050565b610568816106a3565b82525050565b6000602082019050818103600083015261058881846104e6565b905092915050565b600060208201905081810360008301526105a98161051f565b9050919050565b60006020820190506105c5600083018461055f565b92915050565b600081519050919050565b600082825260208201905092915050565b60006105f2826106a3565b91506105fd836106a3565b9250827fffffffffffffffffffffffffffffffffffffffffffffffffffffffffffffffff0382111561063257610631610712565b5b828201905092915050565b6000610648826106a3565b9150610653836106a3565b92508282101561066657610665610712565b5b828203905092915050565b600061067c82610683565b9050919050565b600073ffffffffffffffffffffffffffffffffffffffff82169050919050565b6000819050919050565b60005b838110156106cb5780820151818401526020810190506106b0565b838111156106da576000848401525b50505050565b600060028204905060018216806106f857607f821691505b6020821081141561070c5761070b610741565b5b50919050565b7f4e487b7100000000000000000000000000000000000000000000000000000000600052601160045260246000fd5b7f4e487b7100000000000000000000000000000000000000000000000000000000600052602260045260246000fd5b6000601f19601f8301169050919050565b61078a81610671565b811461079557600080fd5b50565b6107a1816106a3565b81146107ac57600080fd5b5056fea2646970667358221220475637a45f0bd8de9a190b64c79cc411b4d03b0ef34f551afa69646da54222d464736f6c63430008000033",
  "immutableReferences": {},
  "source": "// SPDX-License-Identifier: MIT\r\npragma solidity ^0.8.0;\r\n\r\ncontract Freelancia {\r\n    // Token properties\r\n    string public name;\r\n    string public symbol;\r\n    uint256 public totalSupply;\r\n\r\n    // Mapping of addresses to balances\r\n    mapping (address => uint256) public balances;\r\n\r\n    // Event emitted when tokens are transferred\r\n    event Transfer(address indexed from, address indexed to, uint256 value);\r\n\r\n    // Event emitted when tokens are minted\r\n    event Mint(address indexed to, uint256 value);\r\n\r\n    // Constructor\r\n    constructor() {\r\n        name = \"Freelancia\";\r\n        symbol = \"FLN\";\r\n        totalSupply = 100000000; // 100 million tokens\r\n\r\n        // Mint the initial tokens\r\n        balances[msg.sender] = totalSupply;\r\n        emit Mint(msg.sender, totalSupply);\r\n    }\r\n\r\n    // Function to transfer tokens\r\n    function transfer(address to, uint256 value) public {\r\n        require(balances[msg.sender] >= value, \"Insufficient balance\");\r\n        balances[msg.sender] -= value;\r\n        balances[to] += value;\r\n        emit Transfer(msg.sender, to, value);\r\n    }\r\n\r\n    // Function to get the balance of an address\r\n    function balanceOf(address owner) public view returns (uint256) {\r\n        return balances[owner];\r\n    }\r\n}",
  "sourcePath": "C:\\Users\\black\\FreelanciaContract\\contracts\\Freelancia.sol",
  "compiler": {
    "name": "solc",
    "version": "0.8.0+commit.c7dfd78e.Emscripten.clang"
  },
  "schemaVersion": "3.4.16",
  "updatedAt": "2024-09-17T18:40:11.984Z",
  "devdoc": {
    "kind": "dev",
    "methods": {},
    "version": 1
  },
  "userdoc": {
    "kind": "user",
    "methods": {},
    "version": 1
  }
}